{
  "_format": "hh-sol-artifact-1",
  "contractName": "Savings",
  "sourceName": "contracts/Savings.sol",
  "abi": [
    {
      "inputs": [
        {
          "internalType": "address",
          "name": "",
          "type": "address"
        }
      ],
      "name": "balances",
      "outputs": [
        {
          "internalType": "uint256",
          "name": "",
          "type": "uint256"
        }
      ],
      "stateMutability": "view",
      "type": "function"
    },
    {
      "inputs": [],
      "name": "deposit",
      "outputs": [],
      "stateMutability": "payable",
      "type": "function"
    },
    {
      "inputs": [],
      "name": "getBalance",
      "outputs": [
        {
          "internalType": "uint256",
          "name": "",
          "type": "uint256"
        }
      ],
      "stateMutability": "view",
      "type": "function"
    },
    {
      "inputs": [
        {
          "internalType": "uint256",
          "name": "_amount",
          "type": "uint256"
        }
      ],
      "name": "withdraw",
      "outputs": [],
      "stateMutability": "nonpayable",
      "type": "function"
    }
  ],
  "bytecode": "0x608060405234801561001057600080fd5b506105ca806100206000396000f3fe60806040526004361061003f5760003560e01c806312065fe01461004457806327e235e31461006f5780632e1a7d4d146100ac578063d0e30db0146100d5575b600080fd5b34801561005057600080fd5b506100596100df565b6040516100669190610310565b60405180910390f35b34801561007b57600080fd5b506100966004803603810190610091919061038e565b610125565b6040516100a39190610310565b60405180910390f35b3480156100b857600080fd5b506100d360048036038101906100ce91906103e7565b61013d565b005b6100dd61025d565b005b60008060003373ffffffffffffffffffffffffffffffffffffffff1673ffffffffffffffffffffffffffffffffffffffff16815260200190815260200160002054905090565b60006020528060005260406000206000915090505481565b806000803373ffffffffffffffffffffffffffffffffffffffff1673ffffffffffffffffffffffffffffffffffffffff1681526020019081526020016000205410156101be576040517f08c379a00000000000000000000000000000000000000000000000000000000081526004016101b590610471565b60405180910390fd5b806000803373ffffffffffffffffffffffffffffffffffffffff1673ffffffffffffffffffffffffffffffffffffffff168152602001908152602001600020600082825461020c91906104c0565b925050819055503373ffffffffffffffffffffffffffffffffffffffff166108fc829081150290604051600060405180830381858888f19350505050158015610259573d6000803e3d6000fd5b5050565b600034116102a0576040517f08c379a000000000000000000000000000000000000000000000000000000000815260040161029790610540565b60405180910390fd5b346000803373ffffffffffffffffffffffffffffffffffffffff1673ffffffffffffffffffffffffffffffffffffffff16815260200190815260200160002060008282546102ee9190610560565b92505081905550565b6000819050919050565b61030a816102f7565b82525050565b60006020820190506103256000830184610301565b92915050565b600080fd5b600073ffffffffffffffffffffffffffffffffffffffff82169050919050565b600061035b82610330565b9050919050565b61036b81610350565b811461037657600080fd5b50565b60008135905061038881610362565b92915050565b6000602082840312156103a4576103a361032b565b5b60006103b284828501610379565b91505092915050565b6103c4816102f7565b81146103cf57600080fd5b50565b6000813590506103e1816103bb565b92915050565b6000602082840312156103fd576103fc61032b565b5b600061040b848285016103d2565b91505092915050565b600082825260208201905092915050565b7f496e73756666696369656e742062616c616e6365000000000000000000000000600082015250565b600061045b601483610414565b915061046682610425565b602082019050919050565b6000602082019050818103600083015261048a8161044e565b9050919050565b7f4e487b7100000000000000000000000000000000000000000000000000000000600052601160045260246000fd5b60006104cb826102f7565b91506104d6836102f7565b92508282039050818111156104ee576104ed610491565b5b92915050565b7f4465706f736974206d7573742062652067726561746572207468616e20300000600082015250565b600061052a601e83610414565b9150610535826104f4565b602082019050919050565b600060208201905081810360008301526105598161051d565b9050919050565b600061056b826102f7565b9150610576836102f7565b925082820190508082111561058e5761058d610491565b5b9291505056fea2646970667358221220df00dc10a8b962950b6c0c744295e5902373b2dd8165b8ce3620fbc2fac217a864736f6c63430008140033",
  "linkReferences": {},
  "deployedLinkReferences": {}
}